{
  "contractName": "SupplyChain",
  "abi": [
    {
      "inputs": [],
      "stateMutability": "nonpayable",
      "type": "constructor"
    },
    {
      "anonymous": false,
      "inputs": [
        {
          "indexed": false,
          "internalType": "uint256",
          "name": "sku",
          "type": "uint256"
        }
      ],
      "name": "LogForSale",
      "type": "event"
    },
    {
      "anonymous": false,
      "inputs": [
        {
          "indexed": false,
          "internalType": "uint256",
          "name": "sku",
          "type": "uint256"
        }
      ],
      "name": "LogReceived",
      "type": "event"
    },
    {
      "anonymous": false,
      "inputs": [
        {
          "indexed": false,
          "internalType": "uint256",
          "name": "sku",
          "type": "uint256"
        }
      ],
      "name": "LogShipped",
      "type": "event"
    },
    {
      "anonymous": false,
      "inputs": [
        {
          "indexed": false,
          "internalType": "uint256",
          "name": "sku",
          "type": "uint256"
        }
      ],
      "name": "LogSold",
      "type": "event"
    },
    {
      "inputs": [
        {
          "internalType": "uint256",
          "name": "",
          "type": "uint256"
        }
      ],
      "name": "items",
      "outputs": [
        {
          "internalType": "string",
          "name": "name",
          "type": "string"
        },
        {
          "internalType": "uint256",
          "name": "sku",
          "type": "uint256"
        },
        {
          "internalType": "uint256",
          "name": "price",
          "type": "uint256"
        },
        {
          "internalType": "enum SupplyChain.State",
          "name": "state",
          "type": "uint8"
        },
        {
          "internalType": "address payable",
          "name": "seller",
          "type": "address"
        },
        {
          "internalType": "address payable",
          "name": "buyer",
          "type": "address"
        }
      ],
      "stateMutability": "view",
      "type": "function"
    },
    {
      "inputs": [],
      "name": "skuCount",
      "outputs": [
        {
          "internalType": "uint256",
          "name": "",
          "type": "uint256"
        }
      ],
      "stateMutability": "view",
      "type": "function"
    },
    {
      "inputs": [
        {
          "internalType": "string",
          "name": "_name",
          "type": "string"
        },
        {
          "internalType": "uint256",
          "name": "_price",
          "type": "uint256"
        }
      ],
      "name": "addItem",
      "outputs": [
        {
          "internalType": "bool",
          "name": "",
          "type": "bool"
        }
      ],
      "stateMutability": "nonpayable",
      "type": "function"
    },
    {
      "inputs": [
        {
          "internalType": "uint256",
          "name": "sku",
          "type": "uint256"
        }
      ],
      "name": "buyItem",
      "outputs": [],
      "stateMutability": "payable",
      "type": "function"
    },
    {
      "inputs": [
        {
          "internalType": "uint256",
          "name": "sku",
          "type": "uint256"
        }
      ],
      "name": "shipItem",
      "outputs": [],
      "stateMutability": "nonpayable",
      "type": "function"
    },
    {
      "inputs": [
        {
          "internalType": "uint256",
          "name": "sku",
          "type": "uint256"
        }
      ],
      "name": "receiveItem",
      "outputs": [],
      "stateMutability": "nonpayable",
      "type": "function"
    },
    {
      "inputs": [
        {
          "internalType": "uint256",
          "name": "_sku",
          "type": "uint256"
        }
      ],
      "name": "fetchItem",
      "outputs": [
        {
          "internalType": "string",
          "name": "name",
          "type": "string"
        },
        {
          "internalType": "uint256",
          "name": "sku",
          "type": "uint256"
        },
        {
          "internalType": "uint256",
          "name": "price",
          "type": "uint256"
        },
        {
          "internalType": "uint256",
          "name": "state",
          "type": "uint256"
        },
        {
          "internalType": "address",
          "name": "seller",
          "type": "address"
        },
        {
          "internalType": "address",
          "name": "buyer",
          "type": "address"
        }
      ],
      "stateMutability": "view",
      "type": "function"
    }
  ],
  "bytecode": "0x608060405234801561001057600080fd5b503373ffffffffffffffffffffffffffffffffffffffff1660008054906101000a9050505060006001819055506110bb8061004c6000396000f3fe6080604052600436106100705760003560e01c8063ad4b9cfb1161004e578063ad4b9cfb146101c3578063bfb231d2146102c6578063e7fb74c7146103d4578063f61c899a1461040257610070565b8063227024731461007557806362d6bbdf146100a0578063a26be99914610188575b600080fd5b34801561008157600080fd5b5061008a61043d565b6040518082815260200191505060405180910390f35b3480156100ac57600080fd5b50610170600480360360408110156100c357600080fd5b81019080803590602001906401000000008111156100e057600080fd5b8201836020820111156100f257600080fd5b8035906020019184600183028401116401000000008311171561011457600080fd5b91908080601f016020809104026020016040519081016040528093929190818152602001838380828437600081840152601f19601f82011690508083019250505050505050919291929080359060200190929190505050610443565b60405180821515815260200191505060405180910390f35b34801561019457600080fd5b506101c1600480360360208110156101ab57600080fd5b81019080803590602001909291905050506105fb565b005b3480156101cf57600080fd5b506101fc600480360360208110156101e657600080fd5b81019080803590602001909291905050506107f7565b60405180806020018781526020018681526020018581526020018473ffffffffffffffffffffffffffffffffffffffff1681526020018373ffffffffffffffffffffffffffffffffffffffff168152602001828103825288818151815260200191508051906020019080838360005b8381101561028657808201518184015260208101905061026b565b50505050905090810190601f1680156102b35780820380516001836020036101000a031916815260200191505b5097505050505050505060405180910390f35b3480156102d257600080fd5b506102ff600480360360208110156102e957600080fd5b8101908080359060200190929190505050610990565b604051808060200187815260200186815260200185600381111561031f57fe5b81526020018473ffffffffffffffffffffffffffffffffffffffff1681526020018373ffffffffffffffffffffffffffffffffffffffff168152602001828103825288818151815260200191508051906020019080838360005b83811015610394578082015181840152602081019050610379565b50505050905090810190601f1680156103c15780820380516001836020036101000a031916815260200191505b5097505050505050505060405180910390f35b610400600480360360208110156103ea57600080fd5b8101908080359060200190929190505050610ab1565b005b34801561040e57600080fd5b5061043b6004803603602081101561042557600080fd5b8101908080359060200190929190505050610ded565b005b60015481565b60007f4627c48065af2a9648cbecdd4b9da340c00e501243cd49a8a71c30c987e8b7616001546040518082815260200191505060405180910390a16040518060c001604052808481526020016001548152602001838152602001600060038111156104aa57fe5b81526020013373ffffffffffffffffffffffffffffffffffffffff168152602001600073ffffffffffffffffffffffffffffffffffffffff168152506002600060015481526020019081526020016000206000820151816000019080519060200190610517929190610fe8565b50602082015181600101556040820151816002015560608201518160030160006101000a81548160ff0219169083600381111561055057fe5b021790555060808201518160030160016101000a81548173ffffffffffffffffffffffffffffffffffffffff021916908373ffffffffffffffffffffffffffffffffffffffff16021790555060a08201518160040160006101000a81548173ffffffffffffffffffffffffffffffffffffffff021916908373ffffffffffffffffffffffffffffffffffffffff16021790555090505060018054016001819055506001905092915050565b806002600381111561060957fe5b6002600083815260200190815260200160002060030160009054906101000a900460ff16600381111561063857fe5b146106ab576040517f08c379a00000000000000000000000000000000000000000000000000000000081526004018080602001828103825260148152602001807f4974656d20486173204e6f74205368697070656400000000000000000000000081525060200191505060405180910390fd5b6002600083815260200190815260200160002060040160009054906101000a900473ffffffffffffffffffffffffffffffffffffffff168073ffffffffffffffffffffffffffffffffffffffff163373ffffffffffffffffffffffffffffffffffffffff1614610783576040517f08c379a00000000000000000000000000000000000000000000000000000000081526004018080602001828103825260108152602001807f496e636f72726563742063616c6c65720000000000000000000000000000000081525060200191505060405180910390fd5b7f5a98827d06afe0e04647b3aed26f1ffb77171ad9ac41603c4ef623a6638798c1836040518082815260200191505060405180910390a160036002600085815260200190815260200160002060030160006101000a81548160ff021916908360038111156107ed57fe5b0217905550505050565b60606000806000806000600260008881526020019081526020016000206000018054600181600116156101000203166002900480601f0160208091040260200160405190810160405280929190818152602001828054600181600116156101000203166002900480156108ab5780601f10610880576101008083540402835291602001916108ab565b820191906000526020600020905b81548152906001019060200180831161088e57829003601f168201915b5050505050955060026000888152602001908152602001600020600101549450600260008881526020019081526020016000206002015493506002600088815260200190815260200160002060030160009054906101000a900460ff16600381111561091357fe5b92506002600088815260200190815260200160002060030160019054906101000a900473ffffffffffffffffffffffffffffffffffffffff1691506002600088815260200190815260200160002060040160009054906101000a900473ffffffffffffffffffffffffffffffffffffffff16905091939550919395565b6002602052806000526040600020600091509050806000018054600181600116156101000203166002900480601f016020809104026020016040519081016040528092919081815260200182805460018160011615610100020316600290048015610a3c5780601f10610a1157610100808354040283529160200191610a3c565b820191906000526020600020905b815481529060010190602001808311610a1f57829003601f168201915b5050505050908060010154908060020154908060030160009054906101000a900460ff16908060030160019054906101000a900473ffffffffffffffffffffffffffffffffffffffff16908060040160009054906101000a900473ffffffffffffffffffffffffffffffffffffffff16905086565b8060006003811115610abf57fe5b6002600083815260200190815260200160002060030160009054906101000a900460ff166003811115610aee57fe5b14610b61576040517f08c379a00000000000000000000000000000000000000000000000000000000081526004018080602001828103825260118152602001807f4974656d206e6f7420466f722053616c6500000000000000000000000000000081525060200191505060405180910390fd5b600260008381526020019081526020016000206002015480341015610bee576040517f08c379a00000000000000000000000000000000000000000000000000000000081526004018080602001828103825260138152602001807f496e73756666696369656e7420616d6f756e740000000000000000000000000081525060200191505060405180910390fd5b827fe64ca8c671e48636f85f3008c1dd538e36bfa74fb6f2790b56b72fcc33b879ef846040518082815260200191505060405180910390a16002600085815260200190815260200160002060030160019054906101000a900473ffffffffffffffffffffffffffffffffffffffff1673ffffffffffffffffffffffffffffffffffffffff166108fc60026000878152602001908152602001600020600201549081150290604051600060405180830381858888f19350505050158015610cb8573d6000803e3d6000fd5b50336002600086815260200190815260200160002060040160006101000a81548173ffffffffffffffffffffffffffffffffffffffff021916908373ffffffffffffffffffffffffffffffffffffffff16021790555060016002600086815260200190815260200160002060030160006101000a81548160ff02191690836003811115610d4157fe5b0217905550600060026000838152602001908152602001600020600201549050600081340390506002600084815260200190815260200160002060040160009054906101000a900473ffffffffffffffffffffffffffffffffffffffff1673ffffffffffffffffffffffffffffffffffffffff166108fc829081150290604051600060405180830381858888f19350505050158015610de4573d6000803e3d6000fd5b50505050505050565b8060016003811115610dfb57fe5b6002600083815260200190815260200160002060030160009054906101000a900460ff166003811115610e2a57fe5b14610e9d576040517f08c379a000000000000000000000000000000000000000000000000000000000815260040180806020018281038252600d8152602001807f4974656d204e6f7420536f6c640000000000000000000000000000000000000081525060200191505060405180910390fd5b6002600083815260200190815260200160002060030160019054906101000a900473ffffffffffffffffffffffffffffffffffffffff168073ffffffffffffffffffffffffffffffffffffffff163373ffffffffffffffffffffffffffffffffffffffff1614610f75576040517f08c379a00000000000000000000000000000000000000000000000000000000081526004018080602001828103825260108152602001807f496e636f72726563742063616c6c65720000000000000000000000000000000081525060200191505060405180910390fd5b7feaf695929fec8154f0eafe7248c0e16855eb9ad09e623be92f669e544d53e856836040518082815260200191505060405180910390a1600280600085815260200190815260200160002060030160006101000a81548160ff02191690836003811115610fde57fe5b0217905550505050565b828054600181600116156101000203166002900490600052602060002090601f016020900481019282601f1061102957805160ff1916838001178555611057565b82800160010185558215611057579182015b8281111561105657825182559160200191906001019061103b565b5b5090506110649190611068565b5090565b5b80821115611081576000816000905550600101611069565b509056fea2646970667358221220c006d07a60dfd3532acd4a65ffb119182c75c685fc4615c55d3258820687073b64736f6c634300060c0033",
  "immutableReferences": {},
  "source": "// SPDX-License-Identifier: MIT\n\n/*\n    This exercise has been updated to use Solidity version 0.6\n    Breaking changes from 0.5 to 0.6 can be found here:\n    https://solidity.readthedocs.io/en/v0.6.12/060-breaking-changes.html\n*/\n\npragma solidity >=0.6.0 <0.7.0;\n\ncontract SupplyChain {\n\n  /* set owner */\n  address owner;\n\n  /* Add a variable called skuCount to track the most recent sku # */\n\n  uint public skuCount;\n\n\n  /* Add a line that creates a public mapping that maps the SKU (a number) to an Item.\n     Call this mappings items\n  */\n\n  mapping(uint => Item) public items; //maps the SKU to an items\n\n\n  /* Add a line that creates an enum called State. This should have 4 states\n    ForSale\n    Sold\n    Shipped\n    Received\n    (declaring them in this order is important for testing)\n  */\n\n  enum State {ForSale, Sold, Shipped, Received }\n\n  /* Create a struct named Item.\n    Here, add a name, sku, price, state, seller, and buyer\n    We've left you to figure out what the appropriate types are,\n    if you need help you can ask around :)\n    Be sure to add \"payable\" to addresses that will be handling value transfer\n  */\n\n  struct Item {\n    string name;\n    uint sku;\n    uint price;\n    State state; //enums are declared with their name as such inside a struct!\n    address payable seller; //payable as it will handle vallue transfer\n    address payable buyer; //payable as it will handle vallue transfer\n\n  }\n\n  /* Create 4 events with the same name as each possible State (see above)\n    Prefix each event with \"Log\" for clarity, so the forSale event will be called \"LogForSale\"\n    Each event should accept one argument, the sku */\n\n\n    event LogForSale (uint sku);\n    event LogSold (uint sku);\n    event LogShipped (uint sku);\n    event LogReceived (uint sku);\n\n\n/* Create a modifer that checks if the msg.sender is the owner of the contract */\n\nmodifier isOwner () { //checks if the msg.sender is the owner of the contract\n  require (owner == msg.sender, \"You are not the Owner\");\n  _;\n}\n\nmodifier verifyCaller (address _address) { // Verify if caller is a buyer or seller\n  require (msg.sender == _address, \"Incorrect caller\");\n  _;\n}\n\n  modifier paidEnough(uint _price) {\n    require(msg.value >= _price, \"Insufficient amount\");\n    _;\n  }\n\n  modifier checkValue(uint _sku) {\n    //refund them after pay for item (why it is before, _ checks for logic before func)\n    _;\n    uint _price = items[_sku].price;\n    uint amountToRefund = msg.value - _price;\n    items[_sku].buyer.transfer(amountToRefund);\n  }\n\n  /* For each of the following modifiers, use what you learned about modifiers\n   to give them functionality. For example, the forSale modifier should require\n   that the item with the given sku has the state ForSale.\n   Note that the uninitialized Item.State is 0, which is also the index of the ForSale value,\n   so checking that Item.State == ForSale is not sufficient to check that an Item is for sale.\n   Hint: What item properties will be non-zero when an Item has been added?\n\n   PS: Uncomment the modifier but keep the name for testing purposes!\n   */\n\n\n  modifier forSale (uint sku) {\n    require(items[sku].state == State.ForSale, \"Item not For Sale\");\n    _;\n  }\n\n  modifier sold (uint sku) {\n    require(items[sku].state == State.Sold, \"Item Not Sold\");\n    _;\n  }\n  modifier shipped (uint sku) {\n    require(items[sku].state == State.Shipped, \"Item Has Not Shipped\");\n    _;\n  }\n\n  modifier received (uint sku) {\n    require(items[sku].state == State.Received, \"Item Has Not Been Received\");\n    _;\n  }\n\n\n  constructor() public {\n    /* Here, set the owner as the person who instantiated the contract\n       and set your skuCount to 0. */\n       owner == msg.sender;\n       skuCount = 0;\n  }\n\n  function addItem(string memory _name, uint _price) public returns(bool){\n    emit LogForSale(skuCount);\n    items[skuCount] = Item({name: _name, sku: skuCount, price: _price, state: State.ForSale, seller: msg.sender, buyer: address(0)});\n    skuCount = skuCount + 1;\n    return true;\n  }\n\n  /* Add a keyword so the function can be paid.\n  This function should transfer money to the seller, (all this happens )\n  set the buyer as the person who called this transaction,\n  and set the state to Sold. (arlav comment:these three happen within the brackets)!\n  Be careful, this function should use 3 modifiers to check if the item is for sale,\n    if the buyer paid enough, and check the value after the function is called to make sure the buyer is\n    refunded any excess ether sent.(Arlav comment: These three are modifiers called after the function. )\n     Remember to call the event associated with this function!*/\n\n  function buyItem(uint sku) public payable forSale(sku) paidEnough(items[sku].price) checkValue(sku) {\n      emit LogSold(sku);\n      items[sku].seller.transfer(items[sku].price); // Transfer money to the seller\n      items[sku].buyer = msg.sender; // Set the buyer as the person who called this transaction\n      items[sku].state = State.Sold; // Set the state to Sold.\n  }\n\n  /* Add 2 modifiers to check if the item is sold already, and that the person calling this function\n  is the seller(arlav comment: this takes place after function declaration).\n   Change the state of the item to shipped. Remember to call the event associated with this function!\n   (arlav comments: this takes place within the brackets)\n   */\n  function shipItem(uint sku) public sold(sku) verifyCaller(items[sku].seller) {\n    emit LogShipped(sku);\n    items[sku].state = State.Shipped; // Change the state of the item to shipped.\n\n  }\n\n\n  /* Add 2 modifiers to check if the item is shipped already, and that the person calling this function\n  is the buyer. Change the state of the item to received. Remember to call the event associated with this function!*/\n  function receiveItem(uint sku)\n    public shipped(sku) verifyCaller(items[sku].buyer)\n  {\n    emit LogReceived(sku);\n    items[sku].state = State.Received; //change state to received.\n  }\n\n  /* We have these functions completed so we can run tests, just ignore it :) */\n\n  function fetchItem(uint _sku) public view returns (string memory name, uint sku, uint price, uint state, address seller, address buyer) {\n    name = items[_sku].name;\n    sku = items[_sku].sku;\n    price = items[_sku].price;\n    state = uint(items[_sku].state);\n    seller = items[_sku].seller;\n    buyer = items[_sku].buyer;\n    return (name, sku, price, state, seller, buyer);\n  }\n\n}\n",
  "sourcePath": "/Users/arlav/Documents/GitHub/supply-chain-exercise-arlav/contracts/SupplyChain.sol",
  "compiler": {
    "name": "solc",
    "version": "0.6.12+commit.27d51765.Emscripten.clang"
  },
  "schemaVersion": "3.3.2",
  "updatedAt": "2020-11-22T11:20:01.562Z",
  "devdoc": {
    "kind": "dev",
    "methods": {},
    "version": 1
  },
  "userdoc": {
    "kind": "user",
    "methods": {},
    "version": 1
  }
}